{
  "contractName": "MerchantPlusSwap",
  "abi": [
    {
      "inputs": [
        {
          "internalType": "contract Token",
          "name": "_token",
          "type": "address"
        }
      ],
      "stateMutability": "nonpayable",
      "type": "constructor"
    },
    {
      "anonymous": false,
      "inputs": [
        {
          "indexed": false,
          "internalType": "address",
          "name": "account",
          "type": "address"
        },
        {
          "indexed": false,
          "internalType": "address",
          "name": "token",
          "type": "address"
        },
        {
          "indexed": false,
          "internalType": "uint256",
          "name": "amount",
          "type": "uint256"
        },
        {
          "indexed": false,
          "internalType": "uint256",
          "name": "rate",
          "type": "uint256"
        }
      ],
      "name": "TokensPurchased",
      "type": "event"
    },
    {
      "anonymous": false,
      "inputs": [
        {
          "indexed": false,
          "internalType": "address",
          "name": "account",
          "type": "address"
        },
        {
          "indexed": false,
          "internalType": "address",
          "name": "token",
          "type": "address"
        },
        {
          "indexed": false,
          "internalType": "uint256",
          "name": "amount",
          "type": "uint256"
        },
        {
          "indexed": false,
          "internalType": "uint256",
          "name": "rate",
          "type": "uint256"
        }
      ],
      "name": "TokensSold",
      "type": "event"
    },
    {
      "inputs": [],
      "name": "name",
      "outputs": [
        {
          "internalType": "string",
          "name": "",
          "type": "string"
        }
      ],
      "stateMutability": "view",
      "type": "function",
      "constant": true
    },
    {
      "inputs": [],
      "name": "rate",
      "outputs": [
        {
          "internalType": "uint256",
          "name": "",
          "type": "uint256"
        }
      ],
      "stateMutability": "view",
      "type": "function",
      "constant": true
    },
    {
      "inputs": [],
      "name": "token",
      "outputs": [
        {
          "internalType": "contract Token",
          "name": "",
          "type": "address"
        }
      ],
      "stateMutability": "view",
      "type": "function",
      "constant": true
    },
    {
      "inputs": [],
      "name": "buyTokens",
      "outputs": [],
      "stateMutability": "payable",
      "type": "function",
      "payable": true
    },
    {
      "inputs": [
        {
          "internalType": "uint256",
          "name": "_amount",
          "type": "uint256"
        }
      ],
      "name": "sellTokens",
      "outputs": [],
      "stateMutability": "payable",
      "type": "function",
      "payable": true
    }
  ],
  "bytecode": "0x60806040526040518060400160405280601681526020017f4d65726368616e7420506c75732045786368616e676500000000000000000000815250600090816200004a919062000345565b5060646002553480156200005d57600080fd5b5060405162000f5f38038062000f5f8339818101604052810190620000839190620004aa565b80600160006101000a81548173ffffffffffffffffffffffffffffffffffffffff021916908373ffffffffffffffffffffffffffffffffffffffff16021790555050620004dc565b600081519050919050565b7f4e487b7100000000000000000000000000000000000000000000000000000000600052604160045260246000fd5b7f4e487b7100000000000000000000000000000000000000000000000000000000600052602260045260246000fd5b600060028204905060018216806200014d57607f821691505b60208210810362000163576200016262000105565b5b50919050565b60008190508160005260206000209050919050565b60006020601f8301049050919050565b600082821b905092915050565b600060088302620001cd7fffffffffffffffffffffffffffffffffffffffffffffffffffffffffffffffff826200018e565b620001d986836200018e565b95508019841693508086168417925050509392505050565b6000819050919050565b6000819050919050565b600062000226620002206200021a84620001f1565b620001fb565b620001f1565b9050919050565b6000819050919050565b620002428362000205565b6200025a62000251826200022d565b8484546200019b565b825550505050565b600090565b6200027162000262565b6200027e81848462000237565b505050565b5b81811015620002a6576200029a60008262000267565b60018101905062000284565b5050565b601f821115620002f557620002bf8162000169565b620002ca846200017e565b81016020851015620002da578190505b620002f2620002e9856200017e565b83018262000283565b50505b505050565b600082821c905092915050565b60006200031a60001984600802620002fa565b1980831691505092915050565b600062000335838362000307565b9150826002028217905092915050565b6200035082620000cb565b67ffffffffffffffff8111156200036c576200036b620000d6565b5b62000378825462000134565b62000385828285620002aa565b600060209050601f831160018114620003bd5760008415620003a8578287015190505b620003b4858262000327565b86555062000424565b601f198416620003cd8662000169565b60005b82811015620003f757848901518255600182019150602085019450602081019050620003d0565b8683101562000417578489015162000413601f89168262000307565b8355505b6001600288020188555050505b505050505050565b600080fd5b600073ffffffffffffffffffffffffffffffffffffffff82169050919050565b60006200045e8262000431565b9050919050565b6000620004728262000451565b9050919050565b620004848162000465565b81146200049057600080fd5b50565b600081519050620004a48162000479565b92915050565b600060208284031215620004c357620004c26200042c565b5b6000620004d38482850162000493565b91505092915050565b610a7380620004ec6000396000f3fe60806040526004361061004a5760003560e01c806306fdde031461004f5780632c4e722e1461007a5780636c11bcd3146100a5578063d0febe4c146100c1578063fc0c546a146100cb575b600080fd5b34801561005b57600080fd5b506100646100f6565b604051610071919061061e565b60405180910390f35b34801561008657600080fd5b5061008f610184565b60405161009c9190610659565b60405180910390f35b6100bf60048036038101906100ba91906106a5565b61018a565b005b6100c96103a0565b005b3480156100d757600080fd5b506100e061055f565b6040516100ed9190610751565b60405180910390f35b600080546101039061079b565b80601f016020809104026020016040519081016040528092919081815260200182805461012f9061079b565b801561017c5780601f106101515761010080835404028352916020019161017c565b820191906000526020600020905b81548152906001019060200180831161015f57829003601f168201915b505050505081565b60025481565b80600160009054906101000a900473ffffffffffffffffffffffffffffffffffffffff1673ffffffffffffffffffffffffffffffffffffffff166370a08231336040518263ffffffff1660e01b81526004016101e691906107ed565b602060405180830381865afa158015610203573d6000803e3d6000fd5b505050506040513d601f19601f82011682018060405250810190610227919061081d565b101561023257600080fd5b60006002548261024291906108a8565b90508047101561025157600080fd5b600160009054906101000a900473ffffffffffffffffffffffffffffffffffffffff1673ffffffffffffffffffffffffffffffffffffffff166323b872dd3330856040518463ffffffff1660e01b81526004016102b0939291906108d9565b6020604051808303816000875af11580156102cf573d6000803e3d6000fd5b505050506040513d601f19601f820116820180604052508101906102f39190610948565b503373ffffffffffffffffffffffffffffffffffffffff166108fc829081150290604051600060405180830381858888f1935050505015801561033a573d6000803e3d6000fd5b507f697c42d55a5e1fed3f464ec6f38b32546a0bd368dc8068b065c67566d73f329033600160009054906101000a900473ffffffffffffffffffffffffffffffffffffffff16846002546040516103949493929190610975565b60405180910390a15050565b6000600254346103b091906109ba565b905080600160009054906101000a900473ffffffffffffffffffffffffffffffffffffffff1673ffffffffffffffffffffffffffffffffffffffff166370a08231306040518263ffffffff1660e01b815260040161040e91906107ed565b602060405180830381865afa15801561042b573d6000803e3d6000fd5b505050506040513d601f19601f8201168201806040525081019061044f919061081d565b101561045a57600080fd5b600160009054906101000a900473ffffffffffffffffffffffffffffffffffffffff1673ffffffffffffffffffffffffffffffffffffffff1663a9059cbb33836040518363ffffffff1660e01b81526004016104b7929190610a14565b6020604051808303816000875af11580156104d6573d6000803e3d6000fd5b505050506040513d601f19601f820116820180604052508101906104fa9190610948565b507f6faf93231a456e552dbc9961f58d9713ee4f2e69d15f1975b050ef0911053a7b33600160009054906101000a900473ffffffffffffffffffffffffffffffffffffffff16836002546040516105549493929190610975565b60405180910390a150565b600160009054906101000a900473ffffffffffffffffffffffffffffffffffffffff1681565b600081519050919050565b600082825260208201905092915050565b60005b838110156105bf5780820151818401526020810190506105a4565b838111156105ce576000848401525b50505050565b6000601f19601f8301169050919050565b60006105f082610585565b6105fa8185610590565b935061060a8185602086016105a1565b610613816105d4565b840191505092915050565b6000602082019050818103600083015261063881846105e5565b905092915050565b6000819050919050565b61065381610640565b82525050565b600060208201905061066e600083018461064a565b92915050565b600080fd5b61068281610640565b811461068d57600080fd5b50565b60008135905061069f81610679565b92915050565b6000602082840312156106bb576106ba610674565b5b60006106c984828501610690565b91505092915050565b600073ffffffffffffffffffffffffffffffffffffffff82169050919050565b6000819050919050565b600061071761071261070d846106d2565b6106f2565b6106d2565b9050919050565b6000610729826106fc565b9050919050565b600061073b8261071e565b9050919050565b61074b81610730565b82525050565b60006020820190506107666000830184610742565b92915050565b7f4e487b7100000000000000000000000000000000000000000000000000000000600052602260045260246000fd5b600060028204905060018216806107b357607f821691505b6020821081036107c6576107c561076c565b5b50919050565b60006107d7826106d2565b9050919050565b6107e7816107cc565b82525050565b600060208201905061080260008301846107de565b92915050565b60008151905061081781610679565b92915050565b60006020828403121561083357610832610674565b5b600061084184828501610808565b91505092915050565b7f4e487b7100000000000000000000000000000000000000000000000000000000600052601260045260246000fd5b7f4e487b7100000000000000000000000000000000000000000000000000000000600052601160045260246000fd5b60006108b382610640565b91506108be83610640565b9250826108ce576108cd61084a565b5b828204905092915050565b60006060820190506108ee60008301866107de565b6108fb60208301856107de565b610908604083018461064a565b949350505050565b60008115159050919050565b61092581610910565b811461093057600080fd5b50565b6000815190506109428161091c565b92915050565b60006020828403121561095e5761095d610674565b5b600061096c84828501610933565b91505092915050565b600060808201905061098a60008301876107de565b61099760208301866107de565b6109a4604083018561064a565b6109b1606083018461064a565b95945050505050565b60006109c582610640565b91506109d083610640565b9250817fffffffffffffffffffffffffffffffffffffffffffffffffffffffffffffffff0483118215151615610a0957610a08610879565b5b828202905092915050565b6000604082019050610a2960008301856107de565b610a36602083018461064a565b939250505056fea26469706673582212208018734db5a2c5edf9209d9d6c81c05801e20e201874e7674249520d22122ea764736f6c634300080f0033",
  "immutableReferences": {},
  "source": "pragma solidity >=0.4.22 <0.9.0;\n\nimport \"./Token.sol\";\n\ncontract MerchantPlusSwap {\n  string public name = \"Merchant Plus Exchange\";\n  Token public token;\n  uint public rate = 100;\n\n  event TokensPurchased(\n    address account,\n    address token,\n    uint amount,\n    uint rate\n  );\n\n  event TokensSold(\n    address account,\n    address token,\n    uint amount,\n    uint rate\n  );\n\n  constructor(Token _token) public {\n    token = _token;\n  }\n\n  function buyTokens() public payable {\n    uint tokenAmount = msg.value * rate;\n    require(token.balanceOf(address(this)) >= tokenAmount);\n    token.transfer(msg.sender, tokenAmount);\n\n    emit TokensPurchased(msg.sender, address(token), tokenAmount, rate);\n  }\n\n  function sellTokens(uint _amount) public payable{\n    require(token.balanceOf(msg.sender) >= _amount);\n    uint etherAmount = _amount / rate;\n    require(address(this).balance >= etherAmount);\n    token.transferFrom(msg.sender, address(this), _amount);\n    payable(msg.sender).transfer(etherAmount);\n\n    emit TokensSold(msg.sender, address(token), _amount, rate);\n  }\n\n}",
  "sourcePath": "/home/alpha/Code/Project/MerchantPlus/blockchain/contracts/MerchantPlusSwap.sol",
  "compiler": {
    "name": "solc",
    "version": "0.8.15+commit.e14f2714.Emscripten.clang"
  },
  "schemaVersion": "3.4.8",
  "updatedAt": "2022-08-06T11:55:04.235Z",
  "networkType": "ethereum",
  "devdoc": {
    "kind": "dev",
    "methods": {},
    "version": 1
  },
  "userdoc": {
    "kind": "user",
    "methods": {},
    "version": 1
  }
}